{
  "transactions": [
    {
      "hash": "0x0c0449917de000e2adc043e03a95d41c0cffd64c5719112b0df9d2234865217e",
      "transactionType": "CALL",
      "contractName": null,
      "contractAddress": "0xdc45e5469a8b6d020473f69fec91c0f0e83a3308",
      "function": "trainSkill(uint8)",
      "arguments": [
        "0"
      ],
      "transaction": {
        "from": "0xc6327da0c1cf1c977a267f792826ccce6672f004",
        "to": "0xdc45e5469a8b6d020473f69fec91c0f0e83a3308",
        "gas": "0x19a0c",
        "value": "0x0",
        "input": "0xa0a73d0d0000000000000000000000000000000000000000000000000000000000000000",
        "nonce": "0x0",
        "chainId": "0x171"
      },
      "additionalContracts": [],
      "isFixedGasLimit": false
    }
  ],
  "receipts": [
    {
      "status": "0x1",
      "cumulativeGasUsed": "0x3f8fbb",
      "logs": [
        {
          "address": "0xdc45e5469a8b6d020473f69fec91c0f0e83a3308",
          "topics": [
            "0xa2ecdf3a87e9ffdb151ad823ae834f6165f94e54e5a30467175e075254eb6376"
          ],
          "data": "0x000000000000000000000000c6327da0c1cf1c977a267f792826ccce6672f00400000000000000000000000000000000000000000000000000000000000000000000000000000000000000000000000000000000000000000000000000000000000000000000000000000000000000000000000000000000000000000000000000000000000000000000000000000000000000000000000000000000000000000000000000000000000000000000000000000000000000000000000067dbe95f0000000000000000000000000000000000000000000000000000000067dbded3",
          "blockHash": "0x22bc1dfc602167699f185b81dadb5080382b2eefe0be3f386c9451e41dbf0f4f",
          "blockNumber": "0x15ee50d",
          "transactionHash": "0x0c0449917de000e2adc043e03a95d41c0cffd64c5719112b0df9d2234865217e",
          "transactionIndex": "0x19",
          "logIndex": "0x99",
          "removed": false
        }
      ],
      "logsBloom": "0x00000000000000000000000000000000000000000001000000000000000000000000000000000000000000000000000000000000000000000000000000000000000000000000000000000000000000000000000000002000000000000000000000000000000000000000000004000000000000000000000000000000000000000000000000000000000000000000000000000000000000000000000000000000000000000000000000000000000000000000002000000000000000000000000000000000000000000000000000000000000000000000000000000000000000000000000000000000000000000000400000000000000000000000000100000000",
      "type": "0x2",
      "transactionHash": "0x0c0449917de000e2adc043e03a95d41c0cffd64c5719112b0df9d2234865217e",
      "transactionIndex": "0x19",
      "blockHash": "0x22bc1dfc602167699f185b81dadb5080382b2eefe0be3f386c9451e41dbf0f4f",
      "blockNumber": "0x15ee50d",
      "gasUsed": "0xd377",
      "effectiveGasPrice": "0x92131547e71d3",
      "from": "0xc6327da0c1cf1c977a267f792826ccce6672f004",
      "to": "0xdc45e5469a8b6d020473f69fec91c0f0e83a3308",
      "contractAddress": null
    }
  ],
  "libraries": [],
  "pending": [],
  "returns": {},
  "timestamp": 1742462676,
  "chain": 369,
  "commit": "6d34a01"
}